:100000000C94A7000C94CF000C94CF000C94A40384
:100010000C94CF000C947D030C94CF000C94CF0073
:100020000C94CF000C94CF000C94CF000C941B03C5
:100030000C94CF000C94CF000C94CF000C94CF0004
:100040000C9479020C94CF000C94E9020C94C30236
:100050000C94CF000C94CF000C94CF000C94CF00E4
:100060000C94CF000C94CF0050726F6772616D20BA
:100070002831332E30342E323031382920737461D8
:10008000727465643A006E657720776F726B696E83
:1000900067206D6F64653A20002C207765207265BB
:1000A0006C65617365206974006F7665726C6F6151
:1000B00064206D6967687420626520676F6E6520D3
:1000C0006F6E206368616E6E656C20006F7665727E
:1000D0006C6F6164206465746563746564206F6E21
:1000E000206368616E6E656C2000746865726D6176
:1000F0006C206F7665726C6F616420686173206537
:100100006E64656400746865726D616C206F7665FD
:10011000726C6F6164206465746563746564202D1E
:100120003E20616C6C206368616E6E656C73206F3D
:1001300066660020C2B04300202D3E200074656D2D
:10014000702072656164696E673A20002A07112485
:100150001FBECFEFD8E0DEBFCDBF12E0A0E0B1E020
:10016000EAE3F2E102C005900D92A232B107D9F79D
:1001700022E0A2E2B2E001C01D92A93EB207E1F77F
:1001800010E0C7EAD0E004C02197FE010E94D70723
:10019000C63AD107C9F70E94E5030C941B090C94D9
:1001A0000000AF92BF92CF92DF92EF92FF920F9337
:1001B0001F93CF93DF936C017B018B01040F151FFD
:1001C000EB015E01AE18BF08C017D10759F0699165
:1001D000D601ED91FC910190F081E02DC6010995C9
:1001E000892B79F7C501DF91CF911F910F91FF9076
:1001F000EF90DF90CF90BF90AF900895FC01538DAA
:10020000448D252F30E0842F90E0821B930B5417F0
:1002100010F0CF96089501970895FC01918D828D7D
:10022000981761F0A28DAE0FBF2FB11D5D968C9116
:10023000928D9F5F9F73928F90E008958FEF9FEF55
:100240000895FC01918D828D981731F0828DE80F11
:10025000F11D858D90E008958FEF9FEF0895FC01CB
:10026000918D228D892F90E0805C9F4F821B910998
:100270008F73992708958CE492E00E942F0121E06A
:10028000892B09F420E0822F089580E090E0892BEB
:1002900029F00E943B0181110C9400000895FC019B
:1002A000A48DA80FB92FB11DA35ABF4F2C91848DD7
:1002B00090E001968F739927848FA689B7892C9334
:1002C000A089B1898C91837080648C93938D848D87
:1002D000981306C00288F389E02D80818F7D80838A
:1002E0000895EF92FF920F931F93CF93DF93EC014A
:1002F00081E0888F9B8D8C8D98131AC0E889F989CD
:10030000808185FF15C09FB7F894EE89FF896083CF
:10031000E889F98980818370806480839FBF81E050
:1003200090E0DF91CF911F910F91FF90EF90089592
:10033000F62E0B8D10E00F5F1F4F0F731127E02E6D
:100340008C8D8E110CC00FB607FCFACFE889F989A5
:10035000808185FFF5CFCE010E944F01F1CFEB8D5B
:10036000EC0FFD2FF11DE35AFF4FF0829FB7F89479
:100370000B8FEA89FB8980818062CFCF0F931F9317
:10038000CF93DF938C01D0E0C0E0F801EC0FFD1FAC
:100390006491662341F08CE492E00E947101892B04
:1003A00011F02196F2CFCE01DF91CF911F910F91E5
:1003B0000895CF93DF93EC01888D8823B9F0AA8943
:1003C000BB89E889F9898C9185FD03C0808186FD10
:1003D0000DC00FB607FCF7CF8C9185FFF2CF80815F
:1003E00085FFEDCFCE010E944F01E9CFDF91CF9184
:1003F000089590917C00987F90937C0090917C0070
:100400008770892B80937C0080917A008064809330
:100410007A0080917A0084FFFCCF80917A0080611D
:1004200080937A00809178009091790008958F925E
:100430009F92AF92BF920F931F93CF93DF93CDB74D
:10044000DEB7A1970FB6F894DEBF0FBECDBF19A2DD
:10045000423008F44AE08E010F5D1F4F842E912C2C
:10046000B12CA12CA50194010E947707E62FB901B8
:10047000CA01EA3044F5E05DD801EE938D01232BEB
:10048000242B252B79F790E080E0109769F0FD018F
:1004900001900020E9F73197AF014A1B5B0BBD01CA
:1004A0008CE492E00E94D100A1960FB6F894DEBFD2
:1004B0000FBECDBFDF91CF911F910F91BF90AF9035
:1004C0009F908F900895E95CD7CF42E050E06FE1B4
:1004D00072E08CE492E00C94D100CF93DF930E9401
:1004E000BE01EC010E9465028C0F9D1FDF91CF9130
:1004F00008951F920F920FB60F9211242F933F93DE
:100500008F939F93AF93BF9380914802909149023C
:10051000A0914A02B0914B023091470223E0230F91
:100520002D3758F50196A11DB11D209347028093E8
:10053000480290934902A0934A02B0934B028091E3
:10054000430290914402A0914502B0914602019667
:10055000A11DB11D8093430290934402A0934502D4
:10056000B0934602BF91AF919F918F913F912F9190
:100570000F900FBE0F901F90189526E8230F02963C
:10058000A11DB11DD2CF1F920F920FB60F92112451
:100590002F933F934F935F936F937F938F939F938B
:1005A000AF93BF93EF93FF938CE492E00E944F01CF
:1005B000FF91EF91BF91AF919F918F917F916F913B
:1005C0005F914F913F912F910F900FBE0F901F9011
:1005D00018951F920F920FB60F9211242F938F939D
:1005E0009F93EF93FF93E0915C02F0915D02808115
:1005F000E0916202F091630282FD1BC090818091C4
:1006000065028F5F8F7320916602821741F0E0913F
:100610006502F0E0E45BFD4F958F80936502FF91EA
:10062000EF919F918F912F910F900FBE0F901F9080
:1006300018958081F4CF1F920F920FB60F9211245C
:100640008F939F938091350290913602892B49F0C8
:1006500080913502909136020197909336028093F3
:1006600035028091370290913802892B49F08091B0
:1006700037029091380201979093380280933702A5
:100680008091390290913A02892B49F08091390288
:1006900090913A02019790933A02809339028091A7
:1006A000410290914202892B49F080914102909140
:1006B0004202019790934202809341028091290265
:1006C00090912A02892B49F08091290290912A0267
:1006D000019790932A028093290280913402882303
:1006E00029F0809134028150809334029F918F9140
:1006F0000F900FBE0F901F9018951F920F920FB67C
:100700000F9211248F939F934C9B17C017BC80911D
:100710003E02816080933E028091350290913602C4
:10072000892B59F488E893E190933602809335023F
:1007300080913B02816080933B029F918F910F904B
:100740000FBE0F901F9018951F920F920FB60F9229
:1007500011248F939F93189B17C018BC80913E0261
:10076000826080933E028091370290913802892BFB
:1007700059F488E893E1909338028093370280918E
:100780003B02826080933B021C9B18C01092B30016
:1007900080913E02846080933E0280913902909164
:1007A0003A02892B59F488E893E190933A028093B6
:1007B000390280913B02846080933B029F918F912C
:1007C0000F900FBE0F901F901895789484B582609B
:1007D00084BD84B5816084BD85B5826085BD85B5E5
:1007E000816085BD80916E00816080936E00109263
:1007F00081008091810082608093810080918100DE
:10080000816080938100809180008160809380006E
:100810008091B10084608093B1008091B0008160CC
:100820008093B00080917A00846080937A008091F8
:100830007A00826080937A0080917A008160809350
:100840007A0080917A00806880937A001092C100CB
:10085000E0915C02F0915D0282E08083E0915802B9
:10086000F09159021082E0915A02F0915B0283E309
:10087000808310926402E0916002F091610286E050
:100880008083E0915E02F0915F02808180618083CD
:10089000E0915E02F0915F02808188608083E09148
:1008A0005E02F0915F02808180688083E0915E0249
:1008B000F0915F0280818F7D808310923B021092C5
:1008C0003E0280E197E290934202809341021092AF
:1008D000340210922A0210922902109233021092CE
:1008E0002502109226021092270283E080933D0297
:1008F00080E68AB98CE084B9299A2A981092B300CC
:1009000018BC17BC91E094BD84B5806A84BD85B5E0
:10091000836085BD9093B0008091B0008068809323
:10092000B0008091B10084608093B1008BE080932F
:10093000810089EF90E090938900809388008091F6
:100940006F00826080936F00809168008560809363
:10095000680080916D00806180936D0080916B00D4
:10096000816080936B0080916B00806180936B004D
:1009700080917C008F7380937C0080917A008768DF
:1009800080937A0088E690E00E946D0210923D020A
:10099000CC24C394D12C53E0252E312C60E0462E7C
:1009A00060E0562E70E1672E77E2772EECE2AE2EF5
:1009B000BB24B394F6E98F2E912C80914102909143
:1009C0004202892B09F048C07092420260924102B3
:1009D00086E00E94F901EC019093400280933F026F
:1009E0008DE391E00E94BE01BE0190E080E04AE00C
:1009F0000E94170288E391E00E94BE0160913F02CD
:100A00007091400290E080E00E948D0820E030E08C
:100A100040E250E40E94EC070E945E0890E080E013
:100A20004AE00E94170283E391E00E946D028091E8
:100A30003E0287FDFAC080913F02909140028D37BF
:100A4000910508F4F2C080913E02806880933E02D6
:100A500085E091E00E946D0280913E0290E020913D
:100A60003D0202C0959587952A95E2F780FF54C014
:100A700010923C0280913E0287FF2A9A80913B02AD
:100A8000C0913D0290E00C2E02C0959587950A9486
:100A9000E2F780FF1BC08CEC90E00E94BE0161E495
:100AA0006C0F8CE492E00E9471010E94650220911B
:100AB0003B0280913D02A60102C0440F551F8A955A
:100AC000E2F7CA018095822380933B02C0913D02E8
:100AD000EC2FF0E0EE0FFF1FEB5CFD4F808191816A
:100AE000892BD1F420913E02C6010C2E01C0880F43
:100AF0000A94EAF78095822380933E0289EA90E087
:100B00000E94BE0161E46C0F8CE492E00E947101CE
:100B100089E990E00E946D0280913E0287FF0DC03E
:100B200010923C0280913402811107C085B154E0DB
:100B3000852785B98AEF8093340280913E02209107
:100B40003D02C22FD0E090E0022E02C0959587951D
:100B50000A94E2F780FD4BC080913E0287FD47C0BA
:100B600080913302811175C090E080E0283018F444
:100B7000822F0E94F9019093400280933F02CC0F94
:100B8000DD1FFE01E75EFD4FE080F1808E159F05C1
:100B900020F4F0924002E0923F02CD5EDD4FE8810A
:100BA000F98180913F0290914002E817F90720F403
:100BB000F0934002E0933F0210E000E020913F02FA
:100BC0003091400250E040E02E193F09400B510B9C
:100BD000AFEFB0E00E94B8079F0150E040E02E194F
:100BE0003F09400B510B0E94990720933C029091C2
:100BF0003D0280913C02E92FF0E0EB5DFD4F20814A
:100C0000281709F4CBC0923009F4B8C0E82FF0E0FF
:100C1000ED5EFE4F808180932402992309F4B5C0D4
:100C2000913009F0ADC088BDB1C080913E0287FF10
:100C300013CF80913F02909140028436910508F0D5
:100C40000BCF80913E028F7780933E028AEE90E038
:100C500001CF813009F079C0EFE7FBEB3197F1F775
:100C600000C00000C0913102D0913202D093300216
:100C7000C0932F0200912D0210912E021093320288
:100C800000933102E0902B02F0902C02F0922E02A1
:100C9000E0922D0280E00E94F90190932C02809353
:100CA0002B022091290230912A02232B09F040C007
:100CB0001E141F046CF418161906D4F59C012E1985
:100CC0003F092C363105FCF4101611063CF00CC01F
:100CD000101611066CF41816190654F59C01201B09
:100CE000310B2E3731057CF41C161D063CF020C05C
:100CF0001C161D06ECF418161906D4F48C1B9D0B5B
:100D000081399105ACF090922A028092290280915B
:100D100028028F5F8093280210922E0210922D02DB
:100D200010923202109231021092300210922F0271
:100D30008091280263E00E94570780913D0298133A
:100D40001AC0FFEFF0933C0252CF8091290290919C
:100D50002A02892B49F480912802B0922A02A0929B
:100D600029028F5F809328028091280263E00E940D
:100D70005707291731F310923C0239CF8093240290
:100D8000809124028093B30001C087BDE0913D02B1
:100D9000F0E0EB5DFD4F80913C02808380913E024C
:100DA000811101C02A9880913D0281113FC083B119
:100DB00090912302892781FF39C080E093B19093FD
:100DC0002302E7E5F2E03197F1F700C0000023B11C
:100DD00090912302292721FDF0CF8F5F863071F794
:100DE00080910001882329F091FB882780F9F1E0A8
:100DF0008F2796959170909300018823B9F0809188
:100E0000330290E00196B1010E946307EC018093E8
:100E1000330286E890E00E94BE01BE01DD0F880B20
:100E2000990B4AE00E9417020E94650280913D02E0
:100E30008F5F63E00E94570790933D024114510475
:100E400009F4BBCD0E943B01882309F4B6CD0E9472
:100E50000000B3CDECE4F2E01382128288EE93E05E
:100E6000A0E0B0E084839583A683B78385E091E01A
:100E70009183808385EC90E09587848784EC90E073
:100E80009787868780EC90E0918B808B81EC90E057
:100E9000938B828B82EC90E0958B848B86EC90E038
:100EA000978B868B118E128E138E148E0895991B3C
:100EB00079E004C0991F961708F0961B881F7A9551
:100EC000C9F78095089597FB072E16F4009407D074
:100ED00077FD09D00E94C30707FC05D03EF490952A
:100EE00081959F4F0895709561957F4F0895A1E278
:100EF0001A2EAA1BBB1BFD010DC0AA1FBB1FEE1F94
:100F0000FF1FA217B307E407F50720F0A21BB30BDE
:100F1000E40BF50B661F771F881F991F1A9469F75A
:100F200060957095809590959B01AC01BD01CF01B6
:100F30000895052E97FB1EF400940E94B00757FDFC
:100F400007D00E94770707FC03D04EF40C94B0073B
:100F500050954095309521953F4F4F4F5F4F0895E5
:100F600090958095709561957F4F8F4F9F4F089515
:100F70000E94DD07A59F900DB49F900DA49F800D4A
:100F8000911D11240895AA1BBB1B51E107C0AA1F84
:100F9000BB1FA617B70710F0A61BB70B881F991F1A
:100FA0005A95A9F780959095BC01CD010895EE0F53
:100FB000FF1F0590F491E02D0994A29FB001B39F0B
:100FC000C001A39F700D811D1124911DB29F700D52
:100FD000811D1124911D08950E9400080C94E108C0
:100FE0000E94DA0858F00E94D30840F029F45F3FCD
:100FF00029F00C94CA0851110C9415090C94D008CE
:101000000E94F20868F39923B1F3552391F3951BDD
:10101000550BBB27AA2762177307840738F09F5F19
:101020005F4F220F331F441FAA1FA9F335D00E2E86
:101030003AF0E0E832D091505040E695001CCAF7F3
:101040002BD0FE2F29D0660F771F881FBB1F2617B6
:1010500037074807AB07B0E809F0BB0B802DBF018D
:10106000FF2793585F4F3AF09E3F510578F00C945C
:10107000CA080C9415095F3FE4F3983ED4F38695B3
:1010800077956795B795F7959F5FC9F7880F911D7D
:101090009695879597F90895E1E0660F771F881F69
:1010A000BB1F621773078407BA0720F0621B730B1C
:1010B000840BBA0BEE1F88F7E09508950E94FA089A
:1010C00088F09F5798F0B92F9927B751B0F0E1F009
:1010D000660F771F881F991F1AF0BA95C9F714C0B9
:1010E000B13091F00E941409B1E008950C941409F4
:1010F000672F782F8827B85F39F0B93FCCF38695F2
:1011000077956795B395D9F73EF49095809570954E
:1011100061957F4F8F4F9F4F0895E89409C097FBCB
:101120003EF490958095709561957F4F8F4F9F4FBE
:101130009923A9F0F92F96E9BB279395F695879502
:1011400077956795B795F111F8CFFAF4BB0F11F4C5
:1011500060FF1BC06F5F7F4F8F4F9F4F16C088236C
:1011600011F096E911C0772321F09EE8872F762FA2
:1011700005C0662371F096E8862F70E060E02AF0E3
:101180009A95660F771F881FDAF7880F96958795CF
:1011900097F9089597F99F6780E870E060E00895F7
:1011A0009FEF80EC089500240A941616170618067F
:1011B0000906089500240A9412161306140605065B
:1011C0000895092E0394000C11F4882352F0BB0FEC
:1011D00040F4BF2B11F460FF04C06F5F7F4F8F4F4F
:1011E0009F4F089557FD9058440F551F59F05F3F8A
:1011F00071F04795880F97FB991F61F09F3F79F039
:1012000087950895121613061406551FF2CF4695BA
:10121000F1DF08C0161617061806991FF1CF86953C
:101220007105610508940895E894BB276627772720
:0A123000CB0197F90895F894FFCF61
:10123A0001000000007101D100FE00D9012F010D4B
:10124A000121010001010101010101010101010165
:10125A000101010102020202020202020203030365
:10126A000303030404040405050505060606070727
:10127A000708080909090A0A0B0B0B0C0C0D0D0EBD
:10128A000E0F0F1010111112121313141415161633
:10129A0017171819191A1B1B1C1D1D1E1F1F202189
:1012AA0021222324242526272828292A2B2C2C2DC1
:1012BA002E2F30313232333435363738393A3B3CD7
:1012CA003D3E3F404142434445464748494A4B4CCC
:1012DA004D4F5051525354555758595A5B5D5E5FA2
:1012EA0060616364656668696A6C6D6E7071727458
:1012FA00757678797A7C7D7F808183848687898AEE
:10130A008C8D8F909293959698999B9C9EA0A1A361
:10131A00A4A6A8A9ABACAEB0B1B3B5B6B8BABCBDB9
:10132A00BFC1C3C4C6C8CACBCDCFD1D3D4D6D8DAED
:10133A00DCDEE0E1E3E5E7E9EBEDEFF1F3F5F7F900
:10134A00FBFDFF9801770136017D0085007C000DC9
:02135A000A0087
:00000001FF
